:100000000C942A000C9434000C9434000C943400AA
:100010000C9434000C9434000C9434000C94340090
:100020000C9434000C9434000C9434000C94340080
:100030000C9434000C9434000C9434000C94340070
:100040000C9434000C9434000C9434000C94340060
:100050000C94340011241FBECFE5D8E0DEBFCDBF25
:100060000E9436000C946F010C940000DF93CF9334
:1000700000D0CDB7DEB789E390E09A838983898188
:100080009A8166E040E00E944C0089819A8166E096
:1000900041E00E94FB00F3CFDF93CF9300D000D06C
:1000A00000D0CDB7DEB79A8389836B834C838B8175
:1000B000282F30E03E832D838D819E8183309105F2
:1000C00009F490C02D813E81243031058CF48D815E
:1000D0009E818130910509F485C02D813E812230B9
:1000E00031050CF07FC08D819E81009799F07AC018
:1000F0002D813E812530310509F474C08D819E81AA
:10010000853091050CF46EC02D813E81263031057D
:10011000B1F168C08C81882349F4E981FA810280B9
:10012000F381E02D8081816080835CC08C8181308F
:1001300089F4E981FA810280F381E02D80818E7F4C
:100140008083E981FA810480F581E02D80818E7FB2
:10015000808348C08C81823009F044C0E981FA81F3
:100160000280F381E02D80818E7F8083E981FA8196
:100170000480F581E02D80818160808333C08C8193
:10018000882349F4E981FA810280F381E02D80819E
:100190008064808327C08C81813089F4E981FA8171
:1001A0000280F381E02D80818F7B8083E981FA8159
:1001B0000480F581E02D80818F7B808313C08C814A
:1001C000823081F4E981FA810280F381E02D80811F
:1001D0008F7B8083E981FA810480F581E02D808125
:1001E0008064808326960FB6F894DEBF0FBECDBF25
:1001F000CF91DF910895DF93CF9300D000D000D04E
:10020000CDB7DEB79A8389836B834C838B81282F8C
:1002100030E03E832D838D819E818330910509F4EA
:1002200055C02D813E81243031058CF48D819E8115
:100230008130910509F44AC02D813E81223031057B
:100240000CF044C08D819E81009789F03FC02D81C4
:100250003E8125303105D1F18D819E81853091051A
:10026000ACF12D813E8126303105C9F02FC08C8143
:10027000813049F4E981FA810480F581E02D8081A3
:100280008160808323C08C81882301F5E981FA8114
:100290000480F581E02D80818160808317C08C818E
:1002A000813049F4E981FA810480F581E02D808173
:1002B000806480830BC08C81882341F4E981FA81BA
:1002C0000480F581E02D80818064808326960FB6BE
:1002D000F894DEBF0FBECDBFCF91DF910895F894A3
:0202E000FFCF4E
:00000001FF
